:04000000FEEF7FF0A0
:1016000000801C0000F2200000000046213C212840
:10161000210000000000000000000025640D0A0009
:0116200000C9
:1016220020C538F521C539F522C53AF523C53BF564
:1016320024C53CF525C53DF526C53EF527C53FF534
:101642003FAE02D0010E01D0000E366E376A365020
:101652003710D8B410D03F1E3E1E3D1E3C1E3B1E0E
:101662003A1E391E386C000E39223A223B223C22A5
:101672003D223E223F227DAF5D927DBF05D07D514E
:1016820008E17C05D8B005D0000E336E010E326E33
:1016920004D07CC532F57DC533F57AC534F57BC5FA
:1016A20035F536503710D8A402D05DA403D03406E5
:1016B200D8A03506000E416E1F0E406E000EA36FBD
:1016C2007CD04006D8A04106840E4024D96E050E77
:1016D2004120DA6E38C501F539C502F53AC503F580
:1016E2003BC504F53CC505F53DC506F53EC507F508
:1016F2003FC508F50A0E096E000E0A6E000E0B6E4B
:10170200000E0C6E000E0D6E000E0E6E000E0F6EB1
:10171200000E106EAEEC0DF001C528F502C529F5DC
:1017220003C52AF504C52BF505C52CF506C52DF50F
:1017320007C52EF508C52FF528C513F52AC514F5DA
:10174200EDEC0FF01350300FDF6E3206D8A03306E7
:101752003406D8A0350638C501F539C502F53AC5B3
:1017620003F53BC504F53CC505F53DC506F53EC58B
:1017720007F53FC508F50A0E096E000E0A6E000E47
:101782000B6E000E0C6E000E0D6E000E0E6E000E35
:101792000F6E000E106E0AEC0DF001C538F502C591
:1017A20039F503C53AF504C53BF505C53CF506C553
:1017B2003DF507C53EF508C53FF541BE1FD0415076
:1017C20003E14004D8A01AD0385039103A103B1027
:1017D2003C103D103E103F10D8A473D733BE05D045
:1017E200335002E13204D8B06CD735BE07D0355041
:1017F20003E13404D8A002D05DB263D7365037106B
:10180200D8A402D05DA418D04006D8A04106365014
:101812003710D8A404D0000E316E2B0E03D0000E68
:10182200316E2D0E306E840E4024D96E050E41208D
:10183200DA6E6100C0F4DFF41EC513F51FC514F59E
:10184200840E4024156E050E4120166E34C517F520
:1018520035C518F598EC0EF013C51EF514C51FF525
:101862001200610010F5D9F4610014F5DAF4DFC456
:10187200F6F4160EF76EF86A0800F550250AD8A499
:10188200ABD0610010F5D9F4610014F5DAF4DF2A67
:10189200000E05017B6F000E7A6F7AC55DF57BC580
:1018A2005EF57C697D69610010F5D9F4610014F57B
:1018B200DAF4DFC4F6F4160EF76EF86A0800F55093
:1018C200640AD8B410D0610010F5D9F4610014F59F
:1018D200DAF4DFC4F6F4160EF76EF86A0800F55073
:1018E200690AD8A447D0610010F5D9F4610014F553
:1018F200DAF4DF2A610018F5D9F461001CF5DAF494
:1019020061007CF348F5020EDE2661007CF349F5A6
:10191200000EDD22610020F5D9F4610024F5DAF42D
:10192200610078F34AF5610074F34BF5000E4BBE8B
:10193200FF0E4C6E4D6E4E6E4F6E506E516E42C526
:101942001EF543C51FF54AC520F54BC521F54CC50B
:1019520022F54DC523F54EC524F54FC525F550C5D5
:1019620026F551C527F511EC0BF01EC542F51FC532
:1019720043F51200610010F5D9F4610014F5DAF4B0
:10198200DFC4F6F4160EF76EF86A0800F550250A61
:10199200D8A416D0610010F5D9F4610014F5DAF478
:1019A200DF2A000E046E250E036E42C505F543C5FF
:1019B20006F526EC0FF0000E436E010E426E120089
:1019C200610010F5D9F4610014F5DAF4DF2A000E93
:1019D200436E000E426E1200610010F5D9F46100F0
:1019E20014F5DAF4DFC4F6F4160EF76EF86A08009E
:1019F200F550036E046A42C505F543C506F526ECAB
:101A02000FF0610010F5D9F4610014F5DAF4DF2A61
:101A1200D2D7000E126E10AE12D0101E0F1E0E1E66
:101A22000D1E0C1E0B1E0A1E096C000E0A220B2232
:101A32000C220D220E220F221022010E126E08AE6F
:101A420012D0081E071E061E051E041E031E021EBD
:101A5200016C000E02220322042205220622072222
:101A62000822010E121A21EE13F1070EDE6AE806B1
:101A7200FDE209500A100B100C100D100E100F1081
:101A82001010D8B446D0010E116E0AD0D890093683
:101A92000A360B360C360D360E360F361036112A34
:101AA20010AEF4D7D89013361436153616361736CC
:101AB200183619361A360950015C0A5002580B5072
:101AC20003580C5004580D5005580E5006580F502C
:101AD200075810500858D8A011D00950015E0A507A
:101AE200025A0B50035A0C50045A0D50055A0E500C
:101AF200065A0F50075A1050085A1380D8901032C5
:101B02000F320E320D320C320B320A320932112EE2
:101B1200C9D71250D8B410D01A1E191E181E171E7B
:101B2200161E151E141E136C000E142215221622E8
:101B32001722182219221A2213C501F514C502F51B
:101B420015C503F516C504F517C505F518C506F53F
:101B520019C507F51AC508F51200000E126E08AE77
:101B620012D0081E071E061E051E041E031E021E9C
:101B7200016C000E02220322042205220622072201
:101B82000822010E126E10AE10D0101E0F1E0E1E75
:101B92000D1E0C1E0B1E0A1E096C000E0A220B22C1
:101BA2000C220D220E220F22102209500A100B10B5
:101BB2000C100D100E100F101010D8B43CD0010EE6
:101BC200116E0AD0D89009360A360B360C360D360D
:101BD2000E360F361036112A10AEF4D70950015CBA
:101BE2000A5002580B5003580C5004580D50055817
:101BF2000E5006580F50075810500858D8A010D051
:101C02000950015E0A50025A0B50035A0C50045AF2
:101C12000D50055A0E50065A0F50075A1050085AC6
:101C2200D89010320F320E320D320C320B320A3291
:101C32000932112ED3D71250D8B410D0081E071E65
:101C4200061E051E041E031E021E016C000E022249
:101C520003220422052206220722082201C501F5D9
:101C620002C502F503C503F504C504F505C505F56E
:101C720006C506F507C507F508C508F51200AC90BC
:101C8200000E016E000E026E8FEC10F0AC92000E90
:101C9200016E000E026E8AEC10F0AC94000E016E22
:101CA200000E026E99EC10F0AC96000E016E000E62
:101CB200026E85EC10F0000E0201A16F000EA26F01
:101CC200000EA36F000EA46F000EA56F000EA66F8C
:101CD200000EA76F000EA86F000EA96F000EAA6F6C
:101CE200300EAB6F800EAC6F000EAD6F0C0EAE6F90
:101CF200000EAF6F000EB06F000EB16F000EB26F2C
:101D0200000EB36F000E016E000E026E9EEC10F01C
:101D1200000E016E000E026E94EC10F0000E016EC9
:101D2200000E026EA3EC10F0000E5F6E12005DA0BA
:101D32000AD015C50CF516C50DF513C50EF514C55B
:101D42000FF5B7EC0FF018BE05D017C51CF518C576
:101D52001DF504D0000E1D6E000E1C6E000E1B6ED3
:101D6200000E1A6E0CD0000E046E200E036E13C508
:101D720005F514C506F526EC0FF01A4A1B2A1C506D
:101D82001A5C1B50800A196E1D50800A1958D8A07F
:101D9200EAD75DB00AD015C50CF516C50DF513C509
:101DA2000EF514C50FF5B7EC0FF015C501F516C504
:101DB20002F506EC10F01C500124136E1D50022097
:101DC200146E1200000EBE6E000EBF6E000EC06ECC
:101DD2003F0EC66E700EC76EC868170E0401006F04
:101DE200D00E086FFB0E106F000E016F000E096F10
:101DF200000E116F000E026F000E0A6F000E126FBE
:101E0200370E036FF00E0B6F13693F0E046FF00E67
:101E12000C6F14690D0E0201726F120E696F100EB3
:101E2200106F000E0401056F000E066F000E076FA3
:101E3200000E0D6F000E0E6F000E0F6F000E156F6D
:101E4200000E166F000E176F120005500610D8B460
:101E520004D005500610D8A404D0035080EC10F032
:101E6200120020EE04F00550D9260650DA22DE5088
:101E7200DE10D8B416D020EE04F00550D926065054
:101E8200DA2210EE02F00550E1260650E222DE5080
:101E9200E65CE650800A0B6EDE50800A0B58D8B022
:101EA200120020EE02F00550D9260650DA22DE2A70
:101EB200000EDD221200000E0301D96F000EDA6F50
:101EC200000EDB6F000EDC6F000EDF6F000EE06FA6
:101ED200000EE56F000EE76F000EEC6F020EEE6F64
:101EE200000EEF6F000EF06F000EF16F000EF26F3A
:101EF200000EF46F100EF56F000EF66F000EF76F06
:101F0200000EF86F000EF96F000EFA6F840EF36F79
:101F1200B494B590120054C557F5000E0501796FBF
:101F2200000E786F13D052C542F553C543F5570ED4
:101F3200446E050E456E55C546F556C547F532EC5D
:101F42000CF04250050178274350792361005CF57B
:101F5200F6F4160EF76EF86A0800F5500009D8A4D8
:101F6200E2D778C552F579C553F51200000E126E0C
:101F7200000E116E0BD010C503F5046A0EC505F5EF
:101F82000FC506F526EC0FF0114A122A11500C2447
:101F9200D96E12500D20DA6EDF50106E1050D8B488
:101FA2001200E9D7D69AB490D680000E016E000EC8
:101FB200026EB2EC10F0B990D682000E016E000EE5
:101FC200026EADEC10F0BD90D684000E016E000ED4
:101FD200026EA8EC10F0120014BE05D0145010E1ED
:101FE2001304D8B00DD013C515F514C516F5151E7A
:101FF200161E154A162A15C513F516C514F5120034
:1020020013C513F514C514F5120001C503F502C575
:1020120004F502D0014A022A610004F4D9F46100F5
:1020220008F4DAF4DF50D8A4F5D70350015C016E4E
:1020320004500258026E1200056E610014F4ECF3B3
:102042000301F38FF39DF381F3B1FED7EB51046EDD
:10205200036AEA510324016E000E0420026E12008C
:10206200600E0001AD6F700EAE6F000EAF6F000E0E
:10207200B36F020EB16F000EB26F000EB06F000EA2
:10208200AC6F1200590E5B6E050E5C6E000E526E46
:10209200000E536E58C554F55B0E556E050E566E06
:1020A2008CEC0FF012006EEC10F01B0E586E050E49
:1020B2001DEC10F001C559F502C55AF543EC10F0BC
:1020C200F4D701EE60F1440EEE6AE806FDE15F6AC4
:1020D2005E6A5D6A000154EF10F031EC10F0E3EC3F
:1020E2000EF05CEC0FF040EC0EF0D3EC0FF01200AF
:1020F200016EB7A2FED7610004F4A3F21200026ED1
:10210200025079EC10F0120001C5B0F502C5B1F52C
:10211200120001C5B4F502C5B5F5120001C5B6F548
:1021220002C5B7F5120001C5A6F502C5A7F5120052
:1021320001C5B2F502C5B3F5120001C5A8F502C585
:10214200A9F5120001C5A4F502C5A5F5120001C545
:10215200AAF502C5ABF5120001C5ACF502C5ADF595
:0C216200120001C5AEF502C5AFF5120079
:04FFFC0062EF10F0B0
:020000040020DA
:10000000FF0FFF0FFF0FFF0FFF0FFF0FFF0FFF0F80
:10001000FF0FFF0FFF0FFF0FFF0FFF0FFF0FFF0F70
:020000040030CA
:0A000000FCFFF7FF9FFFFFFFFFFF6B
:00000001FF
