:04000000FEEF7FF0A0
:10FEB80007C505F508C506F5120007C503F508C509
:10FEC80004F5120007C501F508C502F51200000E79
:10FED800F86E0001A3EF7FF077EC7FF0C2EC7FF0C3
:10FEE80089EC7FF01200620E0001AD6F700EAE6FEC
:10FEF800000EAF6F000EB36F020EB16F000EB26F3F
:10FF0800000EB06F000EAC6F1200D69AB490D68077
:10FF1800000E076E000E086E5CEC7FF0B990D6827A
:10FF2800000E076E000E086E61EC7FF0BD90D6845F
:10FF3800000E076E000E086E66EC7FF0120070EC83
:10FF48007FF0C0B2AAEF7FF0ADEF7FF0010EAEEF09
:10FF58007FF0000EFF0A096E0946C0500918FD0B14
:10FF68000918C06EA30E096E550EE82EFED7092E8D
:10FF7800FCD700F0A5EF7FF0FEEF7FF0000EBE6E1D
:10FF8800000EBF6E000EC06E3F0EC66EF00EC76E3E
:10FF9800FD0EC86E370E0401006FF00E086FFD0EDF
:10FFA800106F000E016F000E096F000E116F000E2A
:10FFB800026F000E0A6F000E126F370E036FF00EFD
:10FFC8000B6F13693F0E046FF00E0C6F1469000E6F
:10FFD800056F000E066F000E076F000E0D6F000E06
:10FFE8000E6F000E0F6F000E156F000E166F000ECD
:08FFF800176F12006BEF7FF0A0
:020000040020DA
:10000000FF0FFF0FFF0FFF0FFF0FFF0FFF0FFF0F80
:10001000FF0FFF0FFF0FFF0FFF0FFF0FFF0FFF0F70
:020000040030CA
:0A000000FCFFF7FF9FFFFFFFFFFF6B
:00000001FF
