:04000000FEEF7FF0A0
:1016000000AE1E0000D622000000005C2352233EE4
:10161000230000000000000000000025640D0A0007
:0116200000C9
:1016220020C538F521C539F522C53AF523C53BF564
:1016320024C53CF525C53DF526C53EF527C53FF534
:101642003FBE26EF0BF029EF0BF0010E2AEF0BF055
:10165200000E366E376A36503710D8B433EF0BF0BF
:1016620035EF0BF045EF0BF03F1E3E1E3D1E3C1EBC
:101672003B1E3A1E391E386C000E39223A223B229A
:101682003C223D223E223F2205017DBF4BEF0BF063
:101692004DEF0BF04EEF0BF07E937DBF5BEF0BF047
:1016A2007D5106E17C05D8B059EF0BF05BEF0BF0F2
:1016B20061EF0BF0000E336E010E326E65EF0BF030
:1016C2007CC532F57DC533F57AC534F57BC535F574
:1016D20036503710D8A470EF0BF072EF0BF079EFA1
:1016E2000BF07EA577EF0BF079EF0BF07CEF0BF0B0
:1016F2003406D8A03506000E416E1F0E406E000E55
:10170200A66F00EF0CF04006D8A04106870E4024D9
:10171200D96E050E4120DA6E38C501F539C502F5DC
:101722003AC503F53BC504F53CC505F53DC506F5CF
:101732003EC507F53FC508F50A0E096E000E0A6E92
:10174200000E0B6E000E0C6E000E0D6E000E0E6E75
:10175200000E0F6E000E106E42EC0EF001C528F561
:1017620002C529F503C52AF504C52BF505C52CF5D7
:1017720006C52DF507C52EF508C52FF528C513F5A5
:101782002AC514F5C3EC10F01350300FDF6E320689
:10179200D8A033063406D8A0350638C501F539C5B8
:1017A20002F53AC503F53BC504F53CC505F53DC553
:1017B20006F53EC507F53FC508F50A0E096E000E8F
:1017C2000A6E000E0B6E000E0C6E000E0D6E000EF9
:1017D2000E6E000E0F6E000E106E7EEC0DF001C547
:1017E20038F502C539F503C53AF504C53BF505C51B
:1017F2003CF506C53DF507C53EF508C53FF541BEBA
:101802000BEF0CF0415008E14004D8A00BEF0CF0B4
:101812000DEF0CF03EEF0CF0385039103A103B103F
:101822003C103D103E103F10D8A41AEF0CF01CEFF4
:101832000CF084EF0BF033BE29EF0CF0335006E1CD
:101842003204D8B027EF0CF029EF0CF084EF0BF044
:1018520035BE34EF0CF0355008E13404D8A034EF33
:101862000CF036EF0CF03EEF0CF005017EB33CEFCE
:101872000CF03EEF0CF084EF0BF036503710D8A48A
:1018820045EF0CF047EF0CF04FEF0CF005017EA591
:101892004DEF0CF04FEF0CF06EEF0CF04006D8A0BD
:1018A200410636503710D8A459EF0CF05BEF0CF01C
:1018B20061EF0CF0000E316E2B0E306E65EF0CF006
:1018C200000E316E2D0E306E870E4024D96E050E3D
:1018D2004120DA6E6100C0F4DFF41EC513F51FC5A6
:1018E20014F5870E4024156E050E4120166E34C580
:1018F20017F535C518F5F4EC0EF013C51EF514C531
:101902001FF51200610010F5D9F4610014F5DAF444
:10191200DEC4F6F4DDC4F7F4F86A0800F550250ACF
:10192200D8A496EF0CF098EF0CF05DEF0DF061008B
:1019320010F5D9F4610014F5DAF4DE2A000EDD2286
:10194200000E05017B6F000E7A6F7AC57EF57BC5AE
:101952007FF57C697D69610010F5D9F4610014F5A9
:10196200DAF4DEC4F6F4DDC4F7F4F86A0800F550E0
:10197200640AD8B4BFEF0CF0C1EF0CF0D6EF0CF054
:10198200610010F5D9F4610014F5DAF4DEC4F6F45E
:10199200DDC4F7F4F86A0800F550690AD8A4D4EF58
:1019A2000CF0D6EF0CF020EF0DF0610010F5D9F439
:1019B200610014F5DAF4DE2A000EDD22610018F56A
:1019C200D9F461001CF5DAF461007CF348F5020EEB
:1019D200DE2661007CF349F5000EDD22610020F570
:1019E200D9F4610024F5DAF4610078F34AF5610074
:1019F20074F34BF5000E4BBEFF0E4C6E4D6E4E6EE9
:101A02004F6E506E516E42C51EF543C51FF54AC555
:101A120020F54BC521F54CC522F54DC523F54EC524
:101A220024F54FC525F550C526F551C527F511EC0E
:101A32000BF01EC542F51FC543F57DEF0DF06100A9
:101A420010F5D9F4610014F5DAF4DEC4F6F4DDC45D
:101A5200F7F4F86A0800F550250AD8A433EF0DF020
:101A620035EF0DF04EEF0DF0610010F5D9F4610085
:101A720014F5DAF4DE2A000EDD22000E046E250EC5
:101A8200036E42C505F543C506F5B0EC0FF0000E36
:101A9200436E010E426E7DEF0DF0610010F5D9F438
:101AA200610014F5DAF4DE2A000EDD22000E436E28
:101AB200000E426E7DEF0DF0610010F5D9F4610069
:101AC20014F5DAF4DEC4F6F4DDC4F7F4F86A0800BB
:101AD200F550036E046A42C505F543C506F5B0EC40
:101AE2000FF0610010F5D9F4610014F5DAF4DE2A82
:101AF200000EDD2248EF0DF01200000E126E10BE35
:101B020087EF0DF085EF0DF099EF0DF0101E0F1E0F
:101B12000E1E0D1E0C1E0B1E0A1E096C000E0A2242
:101B22000B220C220D220E220F221022010E126E07
:101B320008BEA0EF0DF09EEF0DF0B2EF0DF0081E03
:101B4200071E061E051E041E031E021E016C000E49
:101B52000222032204220522062207220822010E63
:101B6200121A21EE13F1070EDE6AE806FDE20950B1
:101B72000A100B100C100D100E100F101010D8B40C
:101B8200C5EF0DF0C7EF0DF019EF0EF0010E116E5B
:101B9200D5EF0DF0D89009360A360B360C360D36D5
:101BA2000E360F361036112A10AEDAEF0DF0DCEFDA
:101BB2000DF0CBEF0DF0D8901336143615361636DD
:101BC2001736183619361A360950015C0A5002586F
:101BD2000B5003580C5004580D5005580E5006581F
:101BE2000F50075810500858D8A0FAEF0DF0FCEF2C
:101BF2000DF00DEF0EF00950015E0A50025A0B5023
:101C0200035A0C50045A0D50055A0E50065A0F50E2
:101C1200075A1050085A1380D89010320F320E32E1
:101C22000D320C320B320A320932112EDCEF0DF07A
:101C32001250D8B41FEF0EF021EF0EF031EF0EF07C
:101C42001A1E191E181E171E161E151E141E136CA0
:101C5200000E1422152216221722182219221A22E5
:101C620013C501F514C502F515C503F516C504F52E
:101C720017C505F518C506F519C507F51AC508F5FE
:101C82001200000E126E08BE4BEF0EF049EF0EF07E
:101C92005DEF0EF0081E071E061E051E041E031E23
:101CA200021E016C000E02220322042205220622D9
:101CB20007220822010E126E10BE64EF0EF062EFD0
:101CC2000EF074EF0EF0101E0F1E0E1E0D1E0C1ED7
:101CD2000B1E0A1E096C000E0A220B220C220D2278
:101CE2000E220F22102209500A100B100C100D1098
:101CF2000E100F101010D8B481EF0EF083EF0EF01B
:101D0200CBEF0EF0010E116E91EF0EF0D890093666
:101D12000A360B360C360D360E360F361036112AB1
:101D220010AE96EF0EF098EF0EF087EF0EF009501E
:101D3200015C0A5002580B5003580C5004580D50C5
:101D420005580E5006580F50075810500858D8A082
:101D5200ADEF0EF0AFEF0EF0BFEF0EF00950015EE7
:101D62000A50025A0B50035A0C50045A0D50055A8D
:101D72000E50065A0F50075A1050085AD890103277
:101D82000F320E320D320C320B320A320932112E60
:101D920098EF0EF01250D8B4D1EF0EF0D3EF0EF050
:101DA200E3EF0EF0081E071E061E051E041E031E8C
:101DB200021E016C000E02220322042205220622C8
:101DC2000722082201C501F502C502F503C503F584
:101DD20004C504F505C505F506C506F507C507F5ED
:101DE20008C508F5120005017EA1FAEF0EF0FCEF1E
:101DF2000EF006EF0FF015C50CF516C50DF513C55F
:101E02000EF514C50FF5A1EC10F018BE0BEF0FF094
:101E12000DEF0FF013EF0FF017C51CF518C51DF5E8
:101E220017EF0FF0000E1D6E000E1C6E000E1B6EE3
:101E3200000E1A6E29EF0FF0000E046E200E036ED4
:101E420013C505F514C506F5B0EC0FF01A4A1B2AA6
:101E52001C501A5C1B50800A196E1D50800A1958BA
:101E6200D8A036EF0FF038EF0FF01DEF0FF005019D
:101E72007EB13EEF0FF040EF0FF04AEF0FF015C5C5
:101E82000CF516C50DF513C50EF514C50FF5A1EC2D
:101E920010F015C501F516C502F5E3EC10F01C5063
:101EA2000124136E1D500220146E1200AC90000E1D
:101EB200016E000E026E9AEC11F0AC92000E016EF1
:101EC200000E026E95EC11F0AC94000E016E000E45
:101ED200026EA4EC11F0AC96000E016E000E026EC2
:101EE20090EC11F0000E0201A16F000EA26F000E25
:101EF200A36F000EA46F000EA56F000EA66F000E5A
:101F0200A76F000EA86F000EA96F000EAA6F300E09
:101F1200AB6F800EAC6F000EAD6F0C0EAE6F000E8D
:101F2200AF6F000EB06F000EB16F000EB26F000EF9
:101F3200B36F000E016E000E026EA9EC11F0000EDE
:101F4200016E000E026E9FEC11F0000E016E000E8B
:101F5200026EAEEC11F0000E0501806F120005500A
:101F62000610D8B4B7EF0FF0B9EF0FF0C2EF0FF0D1
:101F720005500610D8A4C0EF0FF0C2EF0FF0C7EF64
:101F82000FF003508BEC11F0FAEF0FF020EE04F09B
:101F92000550D9260650DA22DE50DE10D8B4D4EF2E
:101FA2000FF0D6EF0FF0F1EF0FF020EE04F0055036
:101FB200D9260650DA2210EE02F00550E12606502C
:101FC200E222DE50E65CE650800A0B6EDE50800AAA
:101FD2000B58D8B0EFEF0FF0F1EF0FF0FAEF0FF070
:101FE20020EE02F00550D9260650DA22DE2A000E33
:101FF200DD221200000EBE6E000EBF6E000EC06E1D
:102002003F0EC66E700EC76EC868370E0401006FB1
:10201200F00E086F1069000E016F000E096F000EBE
:10202200116F000E026F000E0A6F000E126F370E54
:10203200036FF00E0B6F13693F0E046FF00E0C6FFF
:1020420014690D0E0201726F120E696F100E106F7D
:10205200000E0401056F000E066F000E076F000EE2
:102062000D6F000E0E6F000E0F6F000E156F000E3B
:10207200166F000E176F120054C558F555C559F565
:10208200000E0501796F000E786F5BEF10F052C5FC
:1020920042F553C543F5580E446E050E456E56C5BE
:1020A20046F557C547F583EC0CF0425005017827F9
:1020B20043507923610060F5F6F4610064F5F7F4AA
:1020C200F86A0800F5500009D8A46AEF10F06CEF26
:1020D20010F048EF10F078C552F579C553F51200AB
:1020E200000E0301D96F000EDA6F000EDB6F000ED7
:1020F200DC6F000EDF6F000EE06F000EE56F000E6A
:10210200E76F000EEC6F020EEE6F000EEF6F000E27
:10211200F06F000EF16F000EF26F000EF46F100EF2
:10212200F56F000EF66F000EF76F000EF86F000EDF
:10213200F96F000EFA6F840EF36FB494B59012002B
:10214200000E126E000E116EB2EF10F010C503F504
:10215200046A0EC505F50FC506F5B0EC0FF0114A7D
:10216200122A11500C24D96E12500D20DA6EDF5053
:10217200106E1050D8A4C0EF10F0C2EF10F0A7EF0D
:1021820010F0120014BED0EF10F0145006E1130448
:10219200D8B0CEEF10F0D0EF10F0DEEF10F013C594
:1021A20015F514C516F5151E161E154A162A15C55F
:1021B20013F516C514F5E2EF10F013C513F514C5A7
:1021C20014F5120001C503F502C504F5EBEF10F09A
:1021D200014A022A610004F4D9F4610008F4DAF435
:1021E200DF50D8A4F7EF10F0F9EF10F0E9EF10F09C
:1021F2000350015C016E04500258026E1200D69A1E
:10220200B490D680000E016E000E026EBDEC11F08D
:10221200B990D682000E016E000E026EB8EC11F07B
:10222200BD90D684000E016E000E026EB3EC11F06A
:102232001200056E610014F4ECF30301F38FF39DB9
:10224200F381F3B127EF11F029EF11F022EF11F032
:10225200EB51046E036AEA510324016E000E04205E
:10226200026E120077EC11F01B0E5A6E160E5B6EA8
:10227200050E1AEC11F001C55CF502C55DF546ECE0
:1022820011F035EF11F0FEEF7FF05C0E5E6E050E81
:102292005F6E000E526E000E536E5AC554F55BC54A
:1022A20055F55E0E566E050E576E3DEC10F012009F
:1022B200600E0001AD6F700EAE6F000EAF6F000EBC
:1022C200B36F020EB16F000EB26F000EB06F000E50
:1022D200AC6F1200016EB7A271EF11F073EF11F043
:1022E2006CEF11F0610004F4A3F2120059EC11F04A
:1022F200FBEC0FF071EC10F057EC0FF000EC11F06A
:10230200120001EE60F1470EEE6AE806FDE10001FF
:1023120033EF11F0026E02506BEC11F0120001C5A6
:10232200B3F502C5B4F5120001C5B7F502C5B8F59B
:10233200120001C5B9F502C5BAF5120001C5A9F529
:1023420002C5AAF5120001C5B5F502C5B6F512001F
:1023520001C5ABF502C5ACF5120001C5A7F502C572
:10236200A8F5120001C5ADF502C5AEF5120001C512
:10237200AFF502C5B0F5120001C5B1F502C5B2F55F
:02238200120047
:04FFFC0082EF11F08F
:020000040020DA
:10000000FF0FFF0FFF0FFF0FFF0FFF0FFF0FFF0F80
:10001000FF0FFF0FFF0FFF0FFF0FFF0FFF0FFF0F70
:020000040030CA
:0A000000FCFFF7FF9FFFFFFFFFFF6B
:00000001FF
